:100000000C9434000C9402020C9451000C94510096
:100010000C9451000C9451000C9451000C9451001C
:100020000C9451000C9451000C9451000C941C023F
:100030000C9451000C9451000C9451000C945100FC
:100040000C9451000C9451000C9451000C945100EC
:100050000C9451000C9451000C9451000C945100DC
:100060000C9451000C94510011241FBECFEFD8E026
:10007000DEBFCDBF12E0A0E0B1E0ECEFF9E102C0DD
:1000800005900D92AA39B107D9F723E0AAE9B2E0A9
:1000900001C01D92AD36B207E1F70E948B020C94AD
:1000A000FC0C0C94000080935103E0915B03F091F1
:1000B0005C03882361F081E009958091570390915A
:1000C000580301969093580380935703089580E056
:1000D0000994909152039923F1F040915703509164
:1000E000580320915303309154034217530798F05B
:1000F0004091590350915A03209155033091560372
:100100004217530758F01092580310925703109259
:100110005A03109259030E9453000CC080E00E94C1
:1001200053008091590390915A03019690935A037A
:100130008093590380915103089589B182FB8827E8
:1001400080F991E089270895419A0895882311F054
:10015000409A089540980895882311F02A9A0895A6
:100160002A980895882311F0289A089528980895C8
:1001700080FF0BC05D9A81FF0AC05C9A82FF09C0B4
:100180005B9A83FF08C05E9A08955D98F4CF5C98EF
:10019000F5CF5B98F6CF5E980895882311F0299AE1
:1001A000089529980895FC019191911101C0089535
:1001B0008091C00085FFFCCF9093C600F5CFCF9310
:1001C000DF93CFE5D3E0EA81FB810995EC81FD81E6
:1001D00080E0099585E08A95F1F70000EC81FD81CA
:1001E00081E0099595E09A95F1F70000EC81FD8199
:1001F00080E009958FE891E00197F1F700C00000D9
:10020000DF91CF910895CF93C82F862FE0915F03A0
:10021000F091600309958C2F82958F700E94DF000A
:100220008C2FCF910C94DF00643008F063E0909144
:100230006803691710F06FEF690FE62FF0E0E15ADD
:10024000FC4F9285890F60E080680C9403010F9346
:100250001F93CF93DF938C01842F0E941401E80138
:100260008991811105C0DF91CF911F910F91089560
:1002700061E00E940301F4CF60E081E00E9403018D
:100280008FE39FE10197F1F700C000000895CF933D
:10029000DF93E0915D03F0915E0380E009958FEDBF
:1002A0009EE20197F1F700C00000E0915D03F0913C
:1002B0005E0381E009958FE39CE90197F1F700C0A7
:1002C0000000E0915D03F0915E0380E009958FEFFF
:1002D0008EBD0DB407FEFDCFCEB5D0E0DC2FCC2710
:1002E0008FEF8EBD0DB407FEFDCF8EB5C82BE0910C
:1002F0005D03F0915E0381E00995C2FD0AC0CE0165
:1003000023E0969587952A95E1F79F70DF91CF912D
:10031000089590E080E0FACF0F931F93CF93DF937F
:10032000162F072FEA01883090F4E82FF0E0E55609
:10033000FE4F0C949A09A301C501CB01CE01D10156
:10034000D401D701C80184E391E00E94D3000F9348
:100350001F93DF93CF9382E891E09F938F938AE975
:1003600092E09F938F930E94240A8DB79EB70896C0
:100370000FB6F8949EBF0FBE8DBF8AE992E0DF9161
:10038000CF911F910F910C94D3008DE391E0DDCFBD
:1003900089E491E0DACF87E591E0D7CF84E691E078
:1003A000D4CF86E791E0D1CF82E791E0CECF8CE742
:1003B00091E0CBCF8AE891E00E94D30080913A038C
:1003C00090913B03892B39F481E090E090933B03BB
:1003D00080933A03089510923B0310923A030E94CF
:1003E0003C0142E050E070E060E08AEA91E00E9467
:1003F0002701409138035091390370E060E084E0B8
:100400000C948C011F920F920FB60F9211248F93B0
:100410009F93EF93FF93E8E4F3E081E080838AE029
:1004200090E092838183FF91EF919F918F910F9044
:100430000FBE0F901F9018951F920F920FB60F923C
:1004400011242F938F939F9380914603909147039C
:100450004D97C9F5109247031092460381E08093AF
:1004600045038091430390914403893F9105A9F589
:10047000109244031092430381E0809342038091E1
:10048000400390914103873E934089F510924103C8
:100490001092400381E080933F0380913D0390914F
:1004A0003E03863C910569F510923E0310923D0390
:1004B00081E080933C039F918F912F910F900FBE0D
:1004C0000F901F90189580914603909147030196D5
:1004D0009093470380934603C4CF80914303909148
:1004E000440301969093440380934303C8CF8091C3
:1004F0004003909141030196909341038093400300
:10050000CCCF80913D0390913E03019690933E03A2
:1005100080933D03D0CFCF93DF93CDB7DEB76F97F6
:100520000FB6F894DEBF0FBECDBFF89412E0109363
:10053000C0008091C10088618093C1008091C20099
:100540008F7E8093C2008091C20086608093C2003B
:100550001092C5008FEC8093C4008BEB91E00E9459
:10056000D300229A2A9A84B18C6284B986E58CBD24
:100570008CEA90E090935E0380935D0380916E001F
:10058000816080936E0010928500109284008091AB
:1005900081008B7F809381008091810083608093B4
:1005A0008100809181008F7E809381008091800006
:1005B0008D7F80938000809181008860809381008E
:1005C00089EF90E0909389008093880080916F007C
:1005D000826080936F0084B1836084B985B1836049
:1005E00085B98AB188678AB95D988DEC90E090935F
:1005F000600380935F0382EB90E0909364038093A9
:10060000630388EB90E0909362038093610388E03A
:100610008093650304E0009368031092690380E40B
:1006200080936A0384E180936B0384E580936C0379
:100630002FEF30E742E0215030404040E1F700C06A
:100640000000E0915F03F091600380E00995E09184
:100650006303F091640380E0099583E00E94DF006A
:100660008FE496E40197F1F700C0000083E00E9458
:10067000DF00EFE4F6E43197F1F700C0000083E01B
:100680000E94DF0087E592E00197F1F700C00000CB
:1006900082E00E94DF008091650360E080620E943A
:1006A00003010093660360E08CE00E9403010E9456
:1006B0003C011093670360E086E00E94030142E082
:1006C00050E070E060E08AEA91E00E94270146E095
:1006D00050E061E070E08EEC91E00E94270160E064
:1006E00080E40E94030190EA9A95F1F700E011E09E
:1006F00061E0F80181918F010E940301F5EDFA9507
:10070000F1F7000021E00830120791F70E9447013D
:10071000909335038093340383E393E390933703FB
:1007200080933603109228031092270390932A0394
:1007300080932903389A80E00E94A600109251030A
:10074000109252038FEF9FEF9093540380935303C3
:1007500090935603809355031092580310925703B9
:1007600010925A031092590386EA90E090935C032A
:1007700080935B03399A419852985A9A8091690004
:10078000826080936900E89AE09A10924803109280
:100790004F0381E0809350038AED91E090934E03E4
:1007A00080934D038DE990E090934C0380934B032D
:1007B0003A9A429A0E9447012EEF32E030932C037E
:1007C00020932B0326E030E0309332032093310353
:1007D00010922E0310922D031092300310922F03CB
:1007E000109233039093FF028093FE0290930103D3
:1007F0008093000390930303809302039093050377
:100800008093040390930703809306039093090356
:100810008093080310923B0310923A0378943FEFC1
:1008200041EE54E0315040405040E1F700C000003C
:100830001F8A1E8A1D8A1C8A1B8A1A8A1F86512CAF
:10084000412C312C212C1E861D86712C612CCE0151
:100850000B969C878B8780914203882309F4E4C11F
:100860000E944701998B888BC0903603D090370344
:10087000F12CE12C60E070E081E090E06C197D09E2
:100880008E099F092091340330913503032E000C0B
:10089000440B550B0E94A009288F398F4A8F5B8F1C
:1008A0003B014C01E889F989BF01FF0F880B990BC7
:1008B000A70196010E94A00959016A017B018C01E0
:1008C000288D398D4A8D5B8DB301C4010E94F709D3
:1008D00030584F4F5F4F6F4F7F4F8F4F9F4FF22ECC
:1008E000032F142FB52FF62FE72FD82EE92EA0E0D7
:1008F0000E94000A84F4215031094F4F5F4F6F4F1F
:100900007F4F8F4F9F4FF22E032F142FB52FF62FAF
:10091000E72FD82EE92E2F2D302F412F5B2F6F2F51
:100920007E2F8D2D9E2D00E10E94DA092093340345
:1009300030933503822E932E340120912B03309176
:100940002C03E0912D03F0912E03EE0FFF1FE20F19
:10095000F31F9182808280912D0390912E03019646
:1009600090932E0380932D034091310350913203D5
:100970008417950721F410922E0310922D03609195
:100980002D0370912E03E0902F03F090300381E04F
:100990006E157F0509F080E08093330345305105E3
:1009A000D8F1CB01A5E0B0E0009709F420C1019790
:1009B0001197D1F79093300380932F03DE011196A6
:1009C0006E157F0569F081E090E000912F03109192
:1009D00030030617170711F090E080E0892BE1F44F
:1009E00080912F03909130038C01000F111F020F93
:1009F000131FF801008111810D931D930196481773
:100A0000590709F4F6C09093300380932F038B8528
:100A10009C85A817B907A1F60F8118858B819C8149
:100A2000081B190BB3E0000F111FBA95E1F769819C
:100A30007A8189859A85681B790B060F171F0250EA
:100A40001109C0902903D0902A03F12CE12C60E019
:100A500070E081E090E06C197D098E099F0920917A
:100A6000270330912803032E000C440B550B0E94E2
:100A7000A009288F398F4A8F5B8F6C8F7D8F8E8F67
:100A80009F8FB801110F880B990BA70196010E9447
:100A9000A00959016A017B018C01288D398D4A8D8D
:100AA0005B8D6C8D7D8D8E8D9F8D0E94F7093058EA
:100AB0004F4F5F4F6F4F7F4F8F4F9F4FF22E032F40
:100AC000142FB52FF62FE72FD82EE92EA0E00E9485
:100AD000000A84F4215031094F4F5F4F6F4F7F4F11
:100AE0008F4F9F4FF22E032F142FB52FF62FE72F86
:100AF000D82EE92E2F2D302F412F5B2F6F2F7E2FD9
:100B00008D2D9E2D00E10E94DA0979018901309333
:100B100028032093270340913803509139036889B3
:100B2000798980E00E948C0140913803509139030B
:100B3000B40181E00E948C01409138035091390347
:100B4000B70183E00E948C01409138035091390332
:100B50006091510370E085E00E948C01E889F98979
:100B6000EF2B49F482E0809326038AE090E0909393
:100B70003B0380933A03E0913A03F0913B03EE0F7D
:100B8000FF1FE85FFE4F80819181881999092091AC
:100B90001401309115012815390548F421E02093FE
:100BA00026032AE030E030933B0320933A032A895E
:100BB0003B89488959892417350710F45B8B4A8B88
:100BC000E0913A03F0913B03EB30F10508F0D5C218
:100BD000E451FA4F0C949A09FE05A106DF0650076E
:100BE0008807BB07BD08FF071608AD08AF08CA0194
:100BF000DECE1092300310922F0309CF80E00E94C6
:100C0000690059EC8516910408F499C00E94A4006B
:100C10001F86809138039091390301969093390390
:100C2000809338031092420380913F038823B1F1EF
:100C300010923F033FEF231A330A4F85442329F0D4
:100C40008D859E8501969E878D8780913A03909130
:100C50003B03039749F480910E0190910F01019697
:100C600090930F0180930E018091100190911101DA
:100C70006816790628F0EC89FD893196FD8BEC8B9E
:100C8000809112019091130108976816790630F04F
:100C90002E893F892F5F3F4F3F8B2E8B80914503DD
:100CA000882329F110924503809148038823F9F0A5
:100CB0008091490390914A03892B09F065C2E09124
:100CC0004B03F0914C030995882379F0E0914D0393
:100CD000F0914E03099580914F039091500389172D
:100CE00008F04FC28F5F80934F03109248038091AA
:100CF0003C03882309F4AFCD10923C03E0913A0302
:100D0000F0913B03E830F10508F094C2820102192A
:100D10001309FE2E37E046E050E061E070E03E1738
:100D200008F4E8C2F0E0E956F94F0C949A09CE08AD
:100D30007A096B096E09710971097409770941987B
:100D400067CF4198EAE1F1E090E080E04191519174
:100D50009C012F5F3F4F4815590550F54081518147
:100D60008416950628F5880F991FFC01EC5DFE4F4F
:100D7000408051804091380350913903B20186E0A0
:100D80000E948C0182E090E090933B0380933A03B1
:100D9000409138035091390362E070E084E00E9492
:100DA0008C0181E08F87312C212C1E861D8631CF4E
:100DB000C9012530310551F6512C412CDBCF0932C8
:100DC000110504F180E00E94690080910E0190916C
:100DD0000F018816990608F41CCF409138035091F2
:100DE000390383E090E090933B0380933A0363E000
:100DF00070E084E00E948C0164E6462E512C312C78
:100E0000212C07CF4214530410F081E0DCCF8091F5
:100E10000E0190910F019C01285231098216930610
:100E200098F081E08093520384E090E09093540323
:100E300080935303EEE0F0E0F0935603E093550304
:100E40000830110514F3BECF8C5891098816990605
:100E500098F081E0809352038AE090E090935403ED
:100E6000809353032CE030E03093560320935503D6
:100E70000831110554F2A6CF013211050CF0A2CFB2
:100E800081E08093520380E190E09093540380933B
:100E900053038AE090E09093560380935503B5CFB7
:100EA00021E02093520323E030E030935403209359
:100EB000530320E130E0309356032093550397FF0E
:100EC00020C0893F9F4F14F117FF20C081E00E948E
:100ED00069002414350408F49CCE409138035091E5
:100EE00039031092520384E090E090933B03809387
:100EF0003A0364E070E00E948C015BE0452E512CC7
:100F00007ECF892B19F00230110504F380E0DFCF8A
:100F10004214530458F181E00E946900809110014D
:100F2000909111018816990608F473CE4091380308
:100F30005091390381E0809352038CE090E09093CC
:100F4000540380935303909356038093550385E095
:100F500090E090933B0380933A0365E070E084E077
:100F60000E948C014DE2442E512C49CF04311105D1
:100F700094F280E0D1CF97FF2CC0893F9F4F3CF186
:100F800017FF25C081E08093520326E030E03093C4
:100F90005403209353034CE050E050935603409386
:100FA00055030E9469002414350408F432CE4091A0
:100FB00038035091390327E030E030933B0320930E
:100FC0003A0367E070E084E00E948C0122CE80E06A
:100FD000E8CF892BE1F305311105CCF781E080934F
:100FE000520386E090E09093540380935303EEE025
:100FF000F0E0F0935603E093550381E0D2CF80E018
:101000000E9469000E94A40038EC8316910408F045
:1010100000CE48E050E050933B0340933A034091A8
:1010200038035091390368E070E0CDCF80E00E9432
:10103000690059EC8516910408F488C00E94A40048
:101040000E943C0142E050E070E060E085ED91E0FC
:101050000E9427018D859E856CE370E00E948609C1
:101060009F938F937F936F9381EE91E09F938F93E4
:1010700022E133E03F932F930E94240A4DE050E099
:1010800070E060E082E193E00E9427015D895F9358
:101090008C898F93EBEEF1E0FF93EF9342E153E005
:1010A0005F934F930E94240A50E040E061E070E0BB
:1010B00082E193E00E9427019F899F93EE89EF933D
:1010C0002FEF31E03F932F9382E193E09F938F9333
:1010D0000E94240A50E040E062E070E082E193E088
:1010E0000E9427012A893B892370332749E1429FC7
:1010F000C001439F900D11249F938F938A899B89F0
:1011000096958795969587959F938F9323E132E0E7
:101110003F932F9382E193E09F938F930E94240A41
:1011200049E050E063E070E082E193E00E94270133
:1011300063E082E10E94140161E080E00E9403010B
:101140000FB6F894DEBF0FBECDBF62CD89E090E050
:1011500090933B0380933A0373CF41985ACD80E03C
:101160000E9469000E94A400409138035091390305
:101170006091260370E08AE027CF80E00E9469003A
:1011800048CD10924F03B1CD8091490390914A030D
:10119000019790934A0380934903A9CD81E292E09D
:1011A0000E9427018D859E856CE370E00E94860970
:1011B0009F938F937F936F9341EE51E05F934F9393
:1011C000E2E1F3E0FF93EF930E94240A4FE050E046
:1011D00063E070E082E193E00E9427010FB6F8948B
:1011E000DEBF0FBECDBF101611060CF086C0FF206B
:1011F00009F483C0C8016CE370E00E9486099F93E4
:101200008F937F936F9381EE91E09F938F9322E171
:1012100033E03F932F930E94240A4FE050E061E0B7
:1012200070E082E193E00E9427010FB6F894DEBFE0
:101230000FBECDBF93012370332749E1429FC00108
:10124000439F900D11249F938F93C301969587958B
:10125000969587959F938F9386E192E09F938F93C6
:10126000E2E1F3E0FF93EF930E94240A50E040E0B4
:1012700063E070E082E193E00E94270163E086E092
:101280000E94140161E080E00E9403010FB6F8940F
:10129000DEBF0FBECDBF80913A0390913B030A970A
:1012A00009F0D9CA1091260346E050E061E070E0F1
:1012B0008EE692E00E942701E12FF0E0EE0FFF1F83
:1012C000E25DFE4F42E050E062E070E0808191819B
:1012D0000E942701C0CA8CE292E062CF88E392E0CC
:1012E0005FCF83E492E05CCF8EE492E059CF89E552
:1012F00092E056CF83E692E053CF4FE050E061E0BA
:1013000070E088E692E00E94270194CFAA1BBB1BE5
:1013100051E107C0AA1FBB1FA617B70710F0A61BF5
:10132000B70B881F991F5A95A9F780959095BC0116
:10133000CD010895EE0FFF1F0590F491E02D099463
:1013400097FB57FF0C94B0099F938F930E94B009AD
:101350006E1B7F0BAF91BF918A0B9B0B0895E89496
:10136000DF93CF93FC01DB010E940C0A7F936F9304
:10137000E9019A01AC01BF93AF933F932F93DF0133
:101380000E940C0A26F46C1B7D0B820B930B9E01B2
:10139000EB01FC010E941B0AAF91BF912F913F917D
:1013A0000E941B0ABE01CF01F9012F913F91CF91FD
:1013B000DF91089597FD1094002E083098F00850A2
:1013C000232F342F452F562F672F782F892F912DBC
:1013D000F4CF159497958795779567955795479589
:1013E000379527950A95AAF71124002D08952A0DFF
:1013F0003B1D4C1D5D1D6E1D7F1D801F911F08959F
:101400000024A7FD00942A1730054005500560050B
:101410007005800590050895A29FB001B39FC0019B
:10142000A39F700D811D1124911DB29F700D811D10
:101430001124911D08950E940C0A460F571FC81FC2
:10144000D91F08F431960895AEE0B0E0EAE2FAE080
:101450000C94D30C0D891E8986E08C831A83098332
:101460008FEF9FE79E838D83AE01475E5F4F6F894D
:10147000788DCE0101960E94470A2F813885020F90
:10148000131FF80110822E96E4E00C94EF0CABE0F1
:10149000B0E0EDE4FAE00C94C50C7C013B018A015C
:1014A000FC0117821682838181FFC8C1CE0101969B
:1014B0005C01F7019381F30193FD859193FF819185
:1014C0003F01882309F453C1853239F493FD859196
:1014D00093FF81913F01853229F4B70190E00E948A
:1014E000370CE7CF912C212C312CFFE1F31538F08C
:1014F0008B3211F190F4803209F1833229F137FCFB
:101500003CC020ED280F2A3050F536FE20C08AE07E
:10151000989E200D1124922E06C08D3291F08033BA
:1015200071F7689430F8F30193FD859193FF8191F1
:101530003F018111DACF21C0689431F8689432F804
:10154000F2CF689433F8EFCF689434F8ECCFEAE048
:101550002E9E200D1124222E689435F8E4CF8E3271
:1015600029F436FC04C1689436F8DDCF8C3619F4C2
:10157000689437F8D8CF8836B1F2982F9F7D95546C
:101580009330E0F08336A1F18337C1F1833509F060
:1015900063C02801F2E04F0E511CF801C080D180D9
:1015A000692D70E036FC02C06FEF7FEFC6010E942C
:1015B000210C4C01689437F882010AC00C5F1F4F60
:1015C000FFE3F98388248394912C6501E89437F82C
:1015D00033FE2DC0522C8114910471F5552009F46D
:1015E00068CFB70180E290E00E94370C5A94F6CFA2
:1015F000F801808189830E5F1F4FE4CF2801F2E05C
:101600004F0E511CF801C080D180692D70E036FC6E
:1016100002C06FEF7FEFC6010E942C0C4C018201CB
:10162000D5CFB70180E290E00E94370C2A942814AD
:10163000190409F0B0F7CECFF60137FC859137FEDB
:1016400081916F01B70190E00E94370C51105A94BC
:10165000F1E08F1A9108BFCF843619F0893609F06E
:1016600077C0F80137FE6BC0608171818281938100
:101670000C5F1F4FF32DFF763F2E97FF09C090950B
:101680008095709561957F4F8F4F9F4F689437F885
:101690002AE030E0A5010E94670CC82ECA188C2CE5
:1016A000432C36FE0CC0E89440F8C91440F434FED4
:1016B00005C032FC03C0F32DFE7E4F2E892C44FE64
:1016C00095C0FE01EC0DF11D8081803309F087C0CB
:1016D000242D297E422E842D8870582E43FC95C0DF
:1016E00040FE8FC09C2C821418F42C0C922C98185D
:1016F00044FE91C0B70180E390E00E94370C42FEA7
:1017000009C088E790E041FE02C088E590E0B7019B
:101710000E94370CC91408F48AC0CA94D12C9FEFD8
:10172000C91AD90ACA0CDB1CF60182916F01B701F4
:1017300090E00E94370CAC14BD04B1F74FCF60812C
:101740007181072E000C880B990B0E5F1F4F92CFF3
:10175000D32CE894D4F82AE030E0853739F1232DF2
:10176000297FD22E8F3601F148F48835A9F0F70190
:10177000868197812B96E2E10C94E10C803749F049
:101780008837A9F7D4FE02C06894D2F820E130E08F
:101790000DC06894D4F8F6CF34FE03C0822F866063
:1017A000D82E20E132E002C028E030E0F801D7FE78
:1017B0000FC060817181828193810C5F1F4FA501F1
:1017C0000E94670CC82ECA183D2CE89437F867CFE2
:1017D0006081718190E080E00E5F1F4FF0CF42FC8E
:1017E00002C0839478CF8394839475CF842D8678B8
:1017F00009F471CFF6CFB70180E290E00E94370C78
:1018000083948214C0F3512C73CF522C5818821435
:1018100008F46ECFF8CF842D867809F47BCF8BE265
:1018200041FE80E247FC8DE2B70190E071CFB70145
:1018300080E390E00E94370C9A946CCF8FEF9FEF7B
:1018400099CFFC010590615070400110D8F7809548
:1018500090958E0F9F1F0895FC016150704001907C
:101860000110D8F7809590958E0F9F1F08950F93C4
:101870001F93CF93DF93182F092FEB018B8181FDED
:1018800009C01FEF0FEF812F902FDF91CF911F9194
:101890000F91089582FF14C02E813F818C819D811C
:1018A000281739073CF4E881F981CF010196998323
:1018B000888310838E819F8101969F838E83E3CFDF
:1018C000E885F985812F0995892BA1F3DACFFA01F3
:1018D000AA27283051F1203181F1E8946F936E7F6F
:1018E0006E5F7F4F8F4F9F4FAF4FB1E03ED0B4E060
:1018F0003CD0670F781F891F9A1FA11D680F791FA1
:101900008A1F911DA11D6A0F711D811D911DA11DB1
:1019100020D009F468943F912AE0269F11243019C1
:10192000305D3193DEF6CF010895462F4770405D5C
:101930004193B3E00FD0C9F7F6CF462F4F70405D0B
:101940004A3318F0495D31FD4052419302D0A9F766
:10195000EACFB4E0A6959795879577956795BA9560
:10196000C9F700976105710508959B01AC010A2E26
:1019700006945795479537952795BA95C9F7620FFD
:10198000731F841F951FA01D08952F923F924F92A1
:101990005F926F927F928F929F92AF92BF92CF92FF
:1019A000DF92EF92FF920F931F93CF93DF93CDB708
:1019B000DEB7CA1BDB0B0FB6F894DEBF0FBECDBF80
:1019C00009942A88398848885F846E847D848C8451
:1019D0009B84AA84B984C884DF80EE80FD800C815A
:1019E0001B81AA81B981CE0FD11D0FB6F894DEBF3D
:0C19F0000FBECDBFED010895F894FFCFAD
:1019FC0007050700000000000000000000001C02AA
:101A0C00DC0248039803000000000000C800180125
:101A1C004001680114000F000D00080000006C026A
:101A2C0079028A025241575F444154410054454D5A
:101A3C00505F494E534944450054454D505F494E03
:101A4C00534944455F320054454D505F4F555453F4
:101A5C004944450054454D505F56454C4F434954FD
:101A6C0059005353525F5354415445004F54484509
:101A7C0052002C25642C25640A002D2D2D2D2D2D86
:101A8C002D2D2D2D2D2D2D2D2D2D20425554544FDA
:101A9C004E205055534845440A005265666C6F778A
:101AAC0020486F7420506C6174650055415254206D
:101ABC00696E697469616C697A65640D0A005354C6
:101ACC004F5045440046494E495348454420202038
:101ADC0000253032693A253032690054696D652031
:101AEC0061626F766520544C3A2025326473005441
:101AFC00696D65206174207065616B203A20253218
:101B0C006473002020202533642E2530326420435A
:101B1C00002053544F504544202020002052414D6A
:101B2C0050555020202020002020534F414B202086
:101B3C00202000205245464C4F57202020002020CA
:101B4C004D4158212020202000434F4F4C444F57EB
:101B5C004E20002020202020202020202000204566
:101B6C0052524F5220202020006D61782074656DF8
:101B7C0070207265616368656400202073656E7304
:0A1B8C006F72206572726F72000024
:00000001FF
